:020000040800F2
:1000000000500020ED140008150400081B0400082F
:1000100021040008270400082D0400080000000047
:100020000000000000000000000000003304000891
:100030003F040008000000004B04000857040008BB
:100040003515000835150008351500083515000868
:100050003515000835150008351500083515000858
:100060003515000835150008351500083515000848
:100070003515000835150008351500083515000838
:100080003515000835150008351500083515000828
:100090003515000835150008351500083515000818
:1000A0003515000835150008351500083515000808
:1000B00035150008351500083515000835150008F8
:1000C00035150008351500083515000835150008E8
:1000D00035150008351500083515000835150008D8
:1000E00063040008351500083515000800000000FD
:1000F0000000000000000000000000000000000000
:0C01000000000000000000005FF808F1A3
:10010C0010B5054C237833B9044B13B10448AFF345
:10011C0000800123237010BD0C00002000000000A3
:10012C009015000808B5034B1BB103490348AFF306
:10013C00008008BD00000000100000209015000891
:10014C0080B500AF00F096F900F010F800F07AF8E6
:10015C0000F04EF82021044800F08EFC4FF4FA60B9
:10016C0000F0EAF9F6E700BF0008014080B590B056
:10017C0000AF07F1180328220021184601F0FAF904
:10018C003B1D00221A605A609A60DA601A610223E1
:10019C00BB610123BB621023FB6202237B63002340
:1001AC00BB634FF46013FB6307F11803184600F0B0
:1001BC009FFC0346002B01D000F0B2F80F237B60AC
:1001CC000223BB600023FB604FF480633B61002380
:1001DC007B613B1D0221184600F00AFF0346002BF1
:1001EC0001D000F09DF800BF4037BD4680BD000037
:1001FC0080B500AF114B124A1A60104B4FF4E1322C
:10020C005A600E4B00229A600C4B0022DA600B4BAA
:10021C0000221A61094B0C225A61084B00229A6188
:10022C00064B0022DA61054801F07EF80346002BEC
:10023C0001D000F075F800BF80BD00BF2800002081
:10024C000044004080B588B000AF07F110030022D5
:10025C001A605A609A60DA602D4A2D4B9B6943F004
:10026C00100393612A4B9B6903F01003FB60FB683E
:10027C00274A274B9B6943F020039361244B9B69CE
:10028C0003F02003BB60BB68214A214B9B6943F000
:10029C00040393611E4B9B6903F004037B607B6832
:1002AC001B4A1B4B9B6943F008039361184B9B69DA
:1002BC0003F008033B603B6800222021154800F046
:1002CC00C3FB4FF400533B61134B7B610023BB61B9
:1002DC0007F110031946114800F05CFA20233B612A
:1002EC0001237B610023BB610223FB6107F1100337
:1002FC001946084800F04EFA00220021282000F090
:10030C0012FA282000F02BFA00BF2037BD4680BD22
:10031C0000100240000801400000111000100140C4
:10032C0080B400AF72B6FEE780B485B000AF154A5A
:10033C00144B9B6943F001039361124B9B6903F0CF
:10034C000103BB60BB680F4A0E4BDB6943F0805363
:10035C00D3610C4BDB6903F080537B607B680A4BE9
:10036C005B68FB60FB6823F0E063FB60FB6843F0B9
:10037C000073FB60044AFB68536000BF1437BD4632
:10038C0080BC7047001002400000014080B588B06E
:10039C0000AF786007F1100300221A605A609A606F
:1003AC00DA607B681B68154A934223D1144A144BBC
:1003BC00DB6943F40033D361114BDB6903F4003385
:1003CC00FB60FB680E4A0E4B9B6943F00403936180
:1003DC000B4B9B6903F00403BB60BB680C233B61B4
:1003EC0002237B610223FB6107F1100319460548C8
:1003FC0000F0D0F900BF2037BD4680BD004400405E
:10040C00001002400008014080B400AFFEE780B449
:10041C0000AFFEE780B400AFFEE780B400AFFEE7AC
:10042C0080B400AFFEE780B400AF00BFBD4680BC17
:10043C00704780B400AF00BFBD4680BC704780B42D
:10044C0000AF00BFBD4680BC704780B500AF00F068
:10045C0057F800BF80BD80B500AF4FF4005000F0DE
:10046C0025FB00BF80BD80B400AF00BFBD4680BC83
:10047C007047000080B500AF084A084B1B6843F07A
:10048C0010031360032000F043F9002000F008F87B
:10049C00FFF74AFF0023184680BD00BF0020024032
:1004AC0080B582B000AF7860124B1A68124B1B7883
:1004BC0019464FF47A73B3FBF1F3B2FBF3F318461E
:1004CC0000F05BF90346002B01D001230EE07B68A2
:1004DC000F2B0AD8002279684FF0FF3000F023F977
:1004EC00064A7B681360002300E001231846083796
:1004FC00BD4680BD00000020080000200400002044
:10050C0080B400AF054B1B781A46054B1B6813448F
:10051C00034A136000BFBD4680BC70470800002032
:10052C006800002080B400AF024B1B681846BD4623
:10053C0080BC70476800002080B584B000AF786044
:10054C00FFF7F0FFB8607B68FB60FB68B3F1FF3F1F
:10055C0005D0094B1B781A46FB681344FB6000BF9F
:10056C00FFF7E0FF0246BB68D21AFB689A42F7D34A
:10057C0000BF1037BD4680BD0800002080B485B098
:10058C0000AF78607B6803F00703FB600C4BDB6803
:10059C00BB60BA684FF6FF031340BB60FB681A02DE
:1005AC00BB68134343F0BF6343F40033BB60044A9E
:1005BC00BB68D36000BF1437BD4680BC704700BF1A
:1005CC0000ED00E080B400AF044BDB681B0A03F0C5
:1005DC0007031846BD4680BC704700BF00ED00E025
:1005EC0080B483B000AF0346FB7197F90730002B42
:1005FC000BDB084997F907305B09FA7902F01F0207
:10060C00012000FA02F241F8232000BF0C37BD464E
:10061C0080BC704700E100E080B483B000AF0346BB
:10062C003960FB7197F90730002B0ADB0D4997F9FC
:10063C0007303A68D2B21201D2B20B4483F80023CD
:10064C000AE00949FB7903F00F03043B3A68D2B284
:10065C001201D2B20B441A7600BF0C37BD4680BCD7
:10066C00704700BF00E100E000ED00E080B489B00D
:10067C0000AFF860B9607A60FB6803F00703FB61B8
:10068C00FB69C3F10703042B28BF0423BB61FB697F
:10069C000433062B02D9FB69033B00E000237B618A
:1006AC000122BB6902FA03F35A1EBB681A407B692C
:1006BC009A4001217B6901FA03F3591E7B680B40B8
:1006CC00134318462437BD4680BC704780B582B0B2
:1006DC0000AF78607B68013BB3F1807F01D30123CD
:1006EC000FE00A4A7B68013B53600F214FF0FF304B
:1006FC00FFF792FF054B00229A60044B07221A6009
:10070C00002318460837BD4680BD00BF10E000E04E
:10071C0080B582B000AF78607868FFF72FFF00BF1C
:10072C000837BD4680BD80B586B000AF0346B960C2
:10073C007A60FB7300237B61FFF744FF78617A6872
:10074C00B9687869FFF792FF024697F90F301146A6
:10075C001846FFF761FF00BF1837BD4680BD80B556
:10076C0082B000AF0346FB7197F907301846FFF7CC
:10077C0037FF00BF0837BD4680BD80B582B000AFE3
:10078C0078607868FFF7A2FF034618460837BD4625
:10079C0080BD000080B48BB000AF7860396000235E
:1007AC007B6200233B6227E101227B6A02FA03F39E
:1007BC00FB613B681A68FB691340BB61BA69FB6952
:1007CC009A4240F016813B685B68122B34D0122B96
:1007DC000DD8022B2BD0022B04D8002B31D0012B9F
:1007EC001CD048E0032B43D0112B1BD043E0894A8B
:1007FC00934226D0874A934206D8874A934220D008
:10080C00864A93421DD036E0854A934219D0854AD8
:10081C00934216D0844A934213D02CE03B68DB6899
:10082C003B6228E03B68DB6804333B6223E03B68B7
:10083C00DB6808333B621EE03B68DB680C333B62D1
:10084C0019E03B689B68002B02D104233B6212E049
:10085C003B689B68012B05D108233B627B68FA69D6
:10086C001A6108E008233B627B68FA695A6102E06E
:10087C0000233B6200BFBB69FF2B01D87B6801E002
:10088C007B6804337B61BB69FF2B02D87B6A9B00BE
:10089C0002E07B6A083B9B003B617B691A680F2175
:1008AC003B6901FA03F3DB431A40396A3B6901FAED
:1008BC0003F31A437B691A603B685B6803F080534F
:1008CC00002B00F09680594A584B9B6943F001036A
:1008DC009361564B9B6903F00103BB60BB68544AA0
:1008EC007B6A9B08023352F82330FB607B6A03F06F
:1008FC0003039B000F2202FA03F3DB43FA68134055
:10090C00FB607B684B4A934213D07B684A4A934204
:10091C000DD07B68494A934207D07B68484A934282
:10092C0001D1032306E0042304E0022302E00123A7
:10093C0000E000237A6A02F0030292009340FA6806
:10094C001343FB603A497B6A9B080233FA6841F80F
:10095C0023203B685B6803F48033002B06D03949B5
:10096C00384B1A68BB6913430B6006E03549354BAD
:10097C001A68BB69DB4313400B603B685B6803F48C
:10098C000033002B06D02F492E4B5A68BB691343FA
:10099C004B6006E02B492B4B5A68BB69DB43134079
:1009AC004B603B685B6803F48013002B06D0254931
:1009BC00244B9A68BB6913438B6006E02149214B99
:1009CC009A68BB69DB4313408B603B685B6803F43C
:1009DC000013002B06D01B491A4BDA68BB69134372
:1009EC00CB6006E01749174BDA68BB69DB43134051
:1009FC00CB607B6A01337B623B681A687B6A22FAA4
:100A0C0003F3002B7FF4D0AE00BF2C37BD4680BC67
:100A1C00704700BF000021100000111000001210E0
:100A2C0000003110000032100000221000100240B3
:100A3C000000014000080140000C01400010014082
:100A4C00001401400004014080B483B000AF786012
:100A5C000B467B8013467B707B78002B03D07A8807
:100A6C007B681A6103E07B881A047B681A6100BFFB
:100A7C000C37BD4680BC704780B485B000AF786041
:100A8C000B467B807B68DB68FB607A88FB681340D5
:100A9C001A04FB68D9437B880B401A437B681A61A4
:100AAC0000BF1437BD4680BC7047000080B582B0D3
:100ABC0000AF0346FB80084B5A69FB881340002BA0
:100ACC0006D0054AFB885361FB88184600F006F8EF
:100ADC0000BF0837BD4680BD0004014080B483B020
:100AEC0000AF0346FB8000BF0C37BD4680BC70478F
:100AFC0080B586B000AF78607B68002B01D10123F4
:100B0C006CE27B681B6803F00103002B00F087800C
:100B1C00924B5B6803F00C03042B0CD08F4B5B687F
:100B2C0003F00C03082B12D18C4B5B6803F480335D
:100B3C00B3F5803F0BD1894B1B6803F40033002BBA
:100B4C006CD07B685B68002B68D1012346E27B6824
:100B5C005B68B3F5803F06D1804A804B1B6843F439
:100B6C00803313602EE07B685B68002B0CD17B4AD2
:100B7C007A4B1B6823F480331360784A774B1B68DD
:100B8C0023F4802313601DE07B685B68B3F5A02F12
:100B9C000CD1724A714B1B6843F4802313606F4A6B
:100BAC006E4B1B6843F4803313600BE06B4A6B4B4A
:100BBC001B6823F480331360684A684B1B6823F46A
:100BCC00802313607B685B68002B13D0FFF7AAFCB3
:100BDC00386108E0FFF7A6FC02463B69D31A642B88
:100BEC0001D90323FAE15D4B1B6803F40033002B9E
:100BFC00F0D014E0FFF796FC386108E0FFF792FCA8
:100C0C0002463B69D31A642B01D90323E6E1534B0B
:100C1C001B6803F40033002BF0D100E000BF7B68AD
:100C2C001B6803F00203002B63D04C4B5B6803F092
:100C3C000C03002B0BD0494B5B6803F00C03082B07
:100C4C001CD1464B5B6803F48033002B16D1434B0D
:100C5C001B6803F00203002B05D07B681B69012B7A
:100C6C0001D00123BAE13D493C4B1B6823F0F8024B
:100C7C007B685B69DB0013430B603AE07B681B69A4
:100C8C00002B20D0364B01221A60FFF74BFC386149
:100C9C0008E0FFF747FC02463B69D31A022B01D947
:100CAC0003239BE12D4B1B6803F00203002BF0D0B8
:100CBC002A492A4B1B6823F0F8027B685B69DB002E
:100CCC0013430B6015E0264B00221A60FFF72AFC39
:100CDC00386108E0FFF726FC02463B69D31A022B69
:100CEC0001D903237AE11D4B1B6803F00203002B8F
:100CFC00F0D17B681B6803F00803002B3AD07B68AB
:100D0C009B69002B19D0174B01221A60FFF70AFCC4
:100D1C00386108E0FFF706FC02463B69D31A022B48
:100D2C0001D903235AE10D4B5B6A03F00203002B3C
:100D3C00F0D0012000F0DAFA1CE00A4B00221A6015
:100D4C00FFF7F0FB38610FE0FFF7ECFB02463B6965
:100D5C00D31A022B08D9032340E100BF0010024034
:100D6C0000004242800442429E4B5B6A03F0020345
:100D7C00002BE9D17B681B6803F00403002B00F007
:100D8C00A6800023FB75974BDB6903F08053002B87
:100D9C000DD1944A934BDB6943F08053D361914B53
:100DAC00DB6903F08053BB60BB680123FB758E4B82
:100DBC001B6803F48073002B18D18B4A8A4B1B6879
:100DCC0043F480731360FFF7ADFB386108E0FFF765
:100DDC00A9FB02463B69D31A642B01D90323FDE01E
:100DEC00814B1B6803F48073002BF0D07B68DB68AD
:100DFC00012B06D17B4A7B4B1B6A43F00103136228
:100E0C002DE07B68DB68002B0CD1764A754B1B6A96
:100E1C0023F001031362734A724B1B6A23F0040321
:100E2C0013621CE07B68DB68052B0CD16D4A6D4BA3
:100E3C001B6A43F0040313626A4A6A4B1B6A43F051
:100E4C00010313620BE0674A664B1B6A23F0010334
:100E5C001362644A634B1B6A23F0040313627B68BE
:100E6C00DB68002B15D0FFF75DFB38610AE0FFF75C
:100E7C0059FB02463B69D31A41F28832934201D99D
:100E8C000323ABE0574B1B6A03F00203002BEED09D
:100E9C0014E0FFF747FB38610AE0FFF743FB02461B
:100EAC003B69D31A41F28832934201D9032395E06E
:100EBC004C4B1B6A03F00203002BEED1FB7D012B84
:100ECC0005D1484A474BDB6923F08053D3617B68DB
:100EDC00DB69002B00F08180424B5B6803F00C0354
:100EEC00082B61D07B68DB69022B46D13F4B00227B
:100EFC001A60FFF717FB386108E0FFF713FB024697
:100F0C003B69D31A022B01D9032367E0354B1B68CD
:100F1C0003F00073002BF0D17B681B6AB3F5803FA4
:100F2C0008D130492F4B5B6823F400327B689B68F7
:100F3C0013434B602B482B4B5B6823F474127B6878
:100F4C00196A7B685B6A0B4313434360274B01228E
:100F5C001A60FFF7E7FA386108E0FFF7E3FA024698
:100F6C003B69D31A022B01D9032337E01D4B1B68B5
:100F7C0003F00073002BF0D02FE01C4B00221A6002
:100F8C00FFF7D0FA386108E0FFF7CCFA02463B696C
:100F9C00D31A022B01D9032320E0124B1B6803F058
:100FAC000073002BF0D118E07B68DB69012B01D1B9
:100FBC00012313E00B4B5B68FB60FB6803F480328E
:100FCC007B681B6A9A4206D1FB6803F470127B683B
:100FDC005B6A9A4201D0012300E0002318461837BF
:100FEC00BD4680BD001002400070004060004242CF
:100FFC0080B584B000AF786039607B68002B01D17C
:10100C000123D0E06A4B1B6803F007023B689A424D
:10101C0010D26749664B1B6823F007023B681343E9
:10102C000B60634B1B6803F007023B689A4201D0CC
:10103C000123B8E07B681B6803F00203002B20D06F
:10104C007B681B6803F00403002B05D0594A594BED
:10105C005B6843F4E06353607B681B6803F0080330
:10106C00002B05D0534A534B5B6843F460535360D9
:10107C005049504B5B6823F0F0027B689B6813432C
:10108C004B607B681B6803F00103002B40D07B682E
:10109C005B68012B07D1474B1B6803F40033002B13
:1010AC0015D101237FE07B685B68022B07D1414B94
:1010BC001B6803F00073002B09D1012373E03D4B37
:1010CC001B6803F00203002B01D101236BE03949AB
:1010DC00384B5B6823F003027B685B6813434B60FF
:1010EC00FFF720FAF8600AE0FFF71CFA0246FB68EB
:1010FC00D31A41F28832934201D9032353E02D4B8A
:10110C005B6803F00C027B685B689B009A42EBD136
:10111C00274B1B6803F007023B689A4210D92449FD
:10112C00234B1B6823F007023B6813430B60204BD7
:10113C001B6803F007023B689A4201D0012332E09E
:10114C007B681B6803F00403002B08D01949194B6A
:10115C005B6823F4E0627B68DB6813434B607B685D
:10116C001B6803F00803002B09D01249114B5B6874
:10117C0023F460527B681B69DB0013434B6000F067
:10118C0021F801460B4B5B681B0903F00F030A4A5D
:10119C00D35C21FA03F3094A1360094B1B68184608
:1011AC00FFF77EF9002318461037BD4680BD00BFFF
:1011BC000020024000100240BC1500080000002076
:1011CC000400002090B48AB000AF2A4B3C1D0FCB1A
:1011DC0084E80F00284B1B883B800023FB61002315
:1011EC00BB6100237B6200237B6100233B62234BAA
:1011FC005B68FB61FB6903F00C03042B02D0082B2A
:10120C0003D02DE01E4B3B622DE0FB699B0C03F0E1
:10121C000F0307F12802134413F8243C7B61FB698C
:10122C0003F48033002B13D0144B5B685B0C03F07E
:10123C00010307F12802134413F8283CBB617B69B6
:10124C000F4A02FB03F2BB69B2FBF3F37B6204E0CF
:10125C007B690C4A02FB03F37B627B6A3B6202E014
:10126C00074B3B6200BF3B6A18462837BD4690BC13
:10127C00704700BFA8150008B81500080010024000
:10128C0000127A0000093D0080B400AF024B1B68CD
:10129C001846BD4680BC70470000002080B500AFEA
:1012AC00FFF7F2FF0146054B5B681B0A03F00703CF
:1012BC00034AD35C21FA03F3184680BD00100240A8
:1012CC00CC15000880B500AFFFF7DEFF0146054BDB
:1012DC005B68DB0A03F00703034AD35C21FA03F3D0
:1012EC00184680BD00100240CC15000880B485B0B3
:1012FC0000AF78600A4B1B680A4AA2FB03235B0A07
:10130C007A6802FB03F3FB6000BFFB685A1EFA60AD
:10131C00002BF9D100BF1437BD4680BC704700BF0D
:10132C0000000020D34D621080B582B000AF786011
:10133C007B68002B01D101233FE07B6893F83930A7
:10134C00DBB2002B06D17B68002283F8382078684A
:10135C00FFF71CF87B68242283F839207B681B6814
:10136C007A681268D26822F40052DA60786800F069
:10137C0029F87B681B687A681268126922F490421B
:10138C001A617B681B687A681268526922F02A021B
:10139C005A617B681B687A681268D26842F4005202
:1013AC00DA607B680022DA637B68202283F83920BC
:1013BC007B68202283F83A20002318460837BD4664
:1013CC0080BD000090B585B000AF78607B681B686D
:1013DC007A681268126922F440517A68D2680A431A
:1013EC001A617B689A687B681B691A437B685B6926
:1013FC001343BB607B681A687B681B68DB6823F44B
:10140C00B05323F00C03B9680B43D3607B681B68A3
:10141C007A681268526922F440717A6892690A43B8
:10142C005A617B681B682C4A934203D1FFF74AFF31
:10143C00F86002E0FFF732FFF8607B681968FA6821
:10144C0013469B0013449A001A447B685B689B000C
:10145C00B2FBF3F3214AA2FB03235B091801FA68E0
:10146C0013469B0013449A001A447B685B689B00EC
:10147C00B2FBF3F2194BA3FB02435B09642404FB9C
:10148C0003F3D31A1B013233144AA2FB03235B0967
:10149C0003F0F0031844FA6813469B0013449A00B7
:1014AC001A447B685B689B00B2FBF3F20B4BA3FB0B
:1014BC0002435B09642404FB03F3D31A1B0132338C
:1014CC00064AA2FB03235B0903F00F0303448B6062
:1014DC0000BF1437BD4690BD003801401F85EB514D
:1014EC00002103E00B4B5B58435004310A480B4B73
:1014FC0042189A42F6D30A4A02E0002342F8043B0F
:10150C00084B9A42F9D3FEF7AEFF00F00FF8FEF746
:10151C0017FE7047DC150008000000200C000020AE
:10152C000C0000206C000020FEE7000070B50025C8
:10153C000C4E0D4CA41BA410A54209D100F022F8AE
:10154C0000250A4E0A4CA41BA410A54205D170BD5F
:10155C0056F8253098470135EEE756F82530984770
:10156C000135F2E7D4150008D4150008D41500088D
:10157C00D815000803460244934200D1704703F883
:10158C00011BF9E7F8B500BFF8BC08BC9E467047D4
:0C159C00F8B500BFF8BC08BC9E467047C4
:1015A80002030405060708090A0B0C0D0E0F10109C
:1015B8000102000000000000000000000102030416
:0C15C800060708090000000001020304EF
:0415D40031010008D9
:0415D8000D010008F9
:0C15DC000024F4001000000001000000DA
:04000005080014EDEE
:00000001FF
